{
  "_format": "hh-sol-artifact-1",
  "contractName": "Keyboards",
  "sourceName": "contracts/Keyboards.sol",
  "abi": [
    {
      "inputs": [],
      "stateMutability": "nonpayable",
      "type": "constructor"
    },
    {
      "anonymous": false,
      "inputs": [
        {
          "components": [
            {
              "internalType": "enum Keyboards.KeyboardTypes",
              "name": "types",
              "type": "uint8"
            },
            {
              "internalType": "bool",
              "name": "isPBT",
              "type": "bool"
            },
            {
              "internalType": "string",
              "name": "filter",
              "type": "string"
            },
            {
              "internalType": "address",
              "name": "owner",
              "type": "address"
            }
          ],
          "indexed": false,
          "internalType": "struct Keyboards.Keyboard",
          "name": "keyboard",
          "type": "tuple"
        }
      ],
      "name": "KeyboardCreated",
      "type": "event"
    },
    {
      "anonymous": false,
      "inputs": [
        {
          "indexed": false,
          "internalType": "address",
          "name": "recipient",
          "type": "address"
        },
        {
          "indexed": false,
          "internalType": "uint256",
          "name": "amount",
          "type": "uint256"
        }
      ],
      "name": "TipSent",
      "type": "event"
    },
    {
      "inputs": [
        {
          "internalType": "enum Keyboards.KeyboardTypes",
          "name": "_type",
          "type": "uint8"
        },
        {
          "internalType": "bool",
          "name": "_isPBT",
          "type": "bool"
        },
        {
          "internalType": "string",
          "name": "_filter",
          "type": "string"
        }
      ],
      "name": "create",
      "outputs": [],
      "stateMutability": "nonpayable",
      "type": "function"
    },
    {
      "inputs": [
        {
          "internalType": "uint256",
          "name": "",
          "type": "uint256"
        }
      ],
      "name": "createdKeyboards",
      "outputs": [
        {
          "internalType": "enum Keyboards.KeyboardTypes",
          "name": "types",
          "type": "uint8"
        },
        {
          "internalType": "bool",
          "name": "isPBT",
          "type": "bool"
        },
        {
          "internalType": "string",
          "name": "filter",
          "type": "string"
        },
        {
          "internalType": "address",
          "name": "owner",
          "type": "address"
        }
      ],
      "stateMutability": "view",
      "type": "function"
    },
    {
      "inputs": [],
      "name": "getKeyboards",
      "outputs": [
        {
          "components": [
            {
              "internalType": "enum Keyboards.KeyboardTypes",
              "name": "types",
              "type": "uint8"
            },
            {
              "internalType": "bool",
              "name": "isPBT",
              "type": "bool"
            },
            {
              "internalType": "string",
              "name": "filter",
              "type": "string"
            },
            {
              "internalType": "address",
              "name": "owner",
              "type": "address"
            }
          ],
          "internalType": "struct Keyboards.Keyboard[]",
          "name": "",
          "type": "tuple[]"
        }
      ],
      "stateMutability": "view",
      "type": "function"
    },
    {
      "inputs": [
        {
          "internalType": "uint256",
          "name": "_index",
          "type": "uint256"
        }
      ],
      "name": "tip",
      "outputs": [],
      "stateMutability": "payable",
      "type": "function"
    }
  ],
  "bytecode": "0x608060405234801561001057600080fd5b5033600160006101000a81548173ffffffffffffffffffffffffffffffffffffffff021916908373ffffffffffffffffffffffffffffffffffffffff160217905550610f2b806100616000396000f3fe60806040526004361061003f5760003560e01c806352810aa114610044578063778bc8471461006f578063d80ad431146100af578063e8b69bc3146100d8575b600080fd5b34801561005057600080fd5b506100596100f4565b6040516100669190610a6b565b60405180910390f35b34801561007b57600080fd5b5061009660048036038101906100919190610acd565b610291565b6040516100a69493929190610b71565b60405180910390f35b3480156100bb57600080fd5b506100d660048036038101906100d19190610c73565b610393565b005b6100f260048036038101906100ed9190610acd565b610546565b005b60606000805480602002602001604051908101604052809291908181526020016000905b8282101561028857838290600052602060002090600302016040518060800160405290816000820160009054906101000a900460ff1660038111156101605761015f610806565b5b600381111561017257610171610806565b5b81526020016000820160019054906101000a900460ff161515151581526020016001820180546101a190610d16565b80601f01602080910402602001604051908101604052809291908181526020018280546101cd90610d16565b801561021a5780601f106101ef5761010080835404028352916020019161021a565b820191906000526020600020905b8154815290600101906020018083116101fd57829003601f168201915b505050505081526020016002820160009054906101000a900473ffffffffffffffffffffffffffffffffffffffff1673ffffffffffffffffffffffffffffffffffffffff1673ffffffffffffffffffffffffffffffffffffffff168152505081526020019060010190610118565b50505050905090565b600081815481106102a157600080fd5b90600052602060002090600302016000915090508060000160009054906101000a900460ff16908060000160019054906101000a900460ff16908060010180546102ea90610d16565b80601f016020809104026020016040519081016040528092919081815260200182805461031690610d16565b80156103635780601f1061033857610100808354040283529160200191610363565b820191906000526020600020905b81548152906001019060200180831161034657829003601f168201915b5050505050908060020160009054906101000a900473ffffffffffffffffffffffffffffffffffffffff16905084565b600060405180608001604052808660038111156103b3576103b2610806565b5b8152602001851515815260200184848080601f016020809104026020016040519081016040528093929190818152602001838380828437600081840152601f19601f8201169050808301925050505050505081526020013373ffffffffffffffffffffffffffffffffffffffff168152509050600081908060018154018082558091505060019003906000526020600020906003020160009091909190915060008201518160000160006101000a81548160ff0219169083600381111561047d5761047c610806565b5b021790555060208201518160000160016101000a81548160ff02191690831515021790555060408201518160010190805190602001906104be929190610737565b5060608201518160020160006101000a81548173ffffffffffffffffffffffffffffffffffffffff021916908373ffffffffffffffffffffffffffffffffffffffff16021790555050507f10a5f72cc15ad697630d0470547e58335ec196e4ce08851d095d19398b1cbdd7816040516105379190610daa565b60405180910390a15050505050565b600080549050811061055757600080fd5b3373ffffffffffffffffffffffffffffffffffffffff166000828154811061058257610581610dcc565b5b906000526020600020906003020160020160009054906101000a900473ffffffffffffffffffffffffffffffffffffffff1673ffffffffffffffffffffffffffffffffffffffff16036105d457600080fd5b60003410156105e257600080fd5b60008082815481106105f7576105f6610dcc565b5b906000526020600020906003020160020160009054906101000a900473ffffffffffffffffffffffffffffffffffffffff1690506000662386f26fc10000346106409190610e2a565b90508173ffffffffffffffffffffffffffffffffffffffff166108fc829081150290604051600060405180830381858888f19350505050158015610688573d6000803e3d6000fd5b50600160009054906101000a900473ffffffffffffffffffffffffffffffffffffffff1673ffffffffffffffffffffffffffffffffffffffff166108fc662386f26fc100009081150290604051600060405180830381858888f193505050501580156106f8573d6000803e3d6000fd5b507f171011172a05babdafffeb4c3cb97a07f0e1e7a0538eab4f4331336fb76fef05828260405161072a929190610ecc565b60405180910390a1505050565b82805461074390610d16565b90600052602060002090601f01602090048101928261076557600085556107ac565b82601f1061077e57805160ff19168380011785556107ac565b828001600101855582156107ac579182015b828111156107ab578251825591602001919060010190610790565b5b5090506107b991906107bd565b5090565b5b808211156107d65760008160009055506001016107be565b5090565b600081519050919050565b600082825260208201905092915050565b6000819050602082019050919050565b7f4e487b7100000000000000000000000000000000000000000000000000000000600052602160045260246000fd5b6004811061084657610845610806565b5b50565b600081905061085782610835565b919050565b600061086782610849565b9050919050565b6108778161085c565b82525050565b60008115159050919050565b6108928161087d565b82525050565b600081519050919050565b600082825260208201905092915050565b60005b838110156108d25780820151818401526020810190506108b7565b838111156108e1576000848401525b50505050565b6000601f19601f8301169050919050565b600061090382610898565b61090d81856108a3565b935061091d8185602086016108b4565b610926816108e7565b840191505092915050565b600073ffffffffffffffffffffffffffffffffffffffff82169050919050565b600061095c82610931565b9050919050565b61096c81610951565b82525050565b600060808301600083015161098a600086018261086e565b50602083015161099d6020860182610889565b50604083015184820360408601526109b582826108f8565b91505060608301516109ca6060860182610963565b508091505092915050565b60006109e18383610972565b905092915050565b6000602082019050919050565b6000610a01826107da565b610a0b81856107e5565b935083602082028501610a1d856107f6565b8060005b85811015610a595784840389528151610a3a85826109d5565b9450610a45836109e9565b925060208a01995050600181019050610a21565b50829750879550505050505092915050565b60006020820190508181036000830152610a8581846109f6565b905092915050565b600080fd5b600080fd5b6000819050919050565b610aaa81610a97565b8114610ab557600080fd5b50565b600081359050610ac781610aa1565b92915050565b600060208284031215610ae357610ae2610a8d565b5b6000610af184828501610ab8565b91505092915050565b610b038161085c565b82525050565b610b128161087d565b82525050565b600082825260208201905092915050565b6000610b3482610898565b610b3e8185610b18565b9350610b4e8185602086016108b4565b610b57816108e7565b840191505092915050565b610b6b81610951565b82525050565b6000608082019050610b866000830187610afa565b610b936020830186610b09565b8181036040830152610ba58185610b29565b9050610bb46060830184610b62565b95945050505050565b60048110610bca57600080fd5b50565b600081359050610bdc81610bbd565b92915050565b610beb8161087d565b8114610bf657600080fd5b50565b600081359050610c0881610be2565b92915050565b600080fd5b600080fd5b600080fd5b60008083601f840112610c3357610c32610c0e565b5b8235905067ffffffffffffffff811115610c5057610c4f610c13565b5b602083019150836001820283011115610c6c57610c6b610c18565b5b9250929050565b60008060008060608587031215610c8d57610c8c610a8d565b5b6000610c9b87828801610bcd565b9450506020610cac87828801610bf9565b935050604085013567ffffffffffffffff811115610ccd57610ccc610a92565b5b610cd987828801610c1d565b925092505092959194509250565b7f4e487b7100000000000000000000000000000000000000000000000000000000600052602260045260246000fd5b60006002820490506001821680610d2e57607f821691505b602082108103610d4157610d40610ce7565b5b50919050565b6000608083016000830151610d5f600086018261086e565b506020830151610d726020860182610889565b5060408301518482036040860152610d8a82826108f8565b9150506060830151610d9f6060860182610963565b508091505092915050565b60006020820190508181036000830152610dc48184610d47565b905092915050565b7f4e487b7100000000000000000000000000000000000000000000000000000000600052603260045260246000fd5b7f4e487b7100000000000000000000000000000000000000000000000000000000600052601160045260246000fd5b6000610e3582610a97565b9150610e4083610a97565b925082821015610e5357610e52610dfb565b5b828203905092915050565b6000819050919050565b6000610e83610e7e610e7984610931565b610e5e565b610931565b9050919050565b6000610e9582610e68565b9050919050565b6000610ea782610e8a565b9050919050565b610eb781610e9c565b82525050565b610ec681610a97565b82525050565b6000604082019050610ee16000830185610eae565b610eee6020830184610ebd565b939250505056fea2646970667358221220a7d89947cd7f8ce6b654f7162ff46f15b0ac6532607210ed5284465b288d4a6464736f6c634300080d0033",
  "linkReferences": {},
  "deployedLinkReferences": {}
}